:020000040800F2
:10000000C006002049020008172800089D250008A6
:1000100015280008B1160008AD28000800000000EF
:100020000000000000000000000000001B28000885
:10003000B316000800000000192800081D28000859
:1000400063020008630200086302000863020008FC
:1000500063020008630200086302000863020008EC
:1000600063020008630200086302000863020008DC
:1000700063020008630200086302000863020008CC
:1000800063020008630200087D150008630200088F
:1000900063020008630200086302000863020008AC
:1000A000630200086302000863020008630200089C
:1000B000630200086302000863020008630200088C
:1000C000630200086302000863020008630200087C
:1000D000630200086302000863020008630200086C
:1000E000630200086302000863020008630200085C
:1000F000630200086302000863020008630200084C
:10010000630200086302000863020008630200083B
:10011000630200086302000863020008630200082B
:10012000630200086302000863020008630200081B
:10013000630200086302000863020008630200080B
:1001400063020008630200086302000863020008FB
:1001500063020008630200086302000863020008EB
:1001600063020008630200086302000863020008DB
:100170006302000863020008630200080000000038
:10018000630200086302000800F002F800F04CF877
:100190000AA090E8000C82448344AAF10107DA45E2
:1001A00001D100F041F8AFF2090EBAE80F0013F0E8
:1001B000010F18BFFB1A43F001031847F029000094
:1001C000102A0000103A24BF78C878C1FAD8520724
:1001D00024BF30C830C144BF04680C6070470000C1
:1001E0000023002400250026103A28BF78C1FBD840
:1001F000520728BF30C148BF0B607047662902F024
:100200007784642900F0F480002070471FB502F065
:100210006AFC00F075FC04000020002102F0D6FB0F
:10022000E0601FBD10B510BD00F06AFD1146FFF77C
:10023000EDFF02F073FB00F088FD03B4FFF7F2FF5F
:1002400003BC00F0CBFD0000094880470948004787
:10025000FEE7FEE7FEE7FEE7FEE7FEE7FEE7FEE776
:10026000FEE7FEE704480549054A064B70470000D3
:100270009D28000889010008C0000020C006002059
:10028000C0020020C002002053EA020C00F0698086
:100290002DE9F04B4FF00006002B1FBFB3FA83F59A
:1002A00003FA05F424FA05F65E4012BF1643B2FACB
:1002B00082F502FA05F4C5F120051EBF22FA05FCFD
:1002C00044EA0C04203556EA044C4FEA144418BFA3
:1002D000641C4FF000084FF00009904271EB030CD2
:1002E00039D3002919BFB1FA81F701FA07F6B0FA3C
:1002F00080F700FA07F6C7F120071EBF20FA07FCB7
:1003000046EA0C062037B6FBF4FCA7EB0507103FC6
:1003100007F01F0BCBF120060CFA0BFB2CFA06F6AC
:1003200044BFB3460026202FA4BF5E464FF0000B0B
:100330005BEA060C08BF4FF0010B19EB0B09ABFB96
:10034000027C48EB0608C01B06FB02CC0BFB03CC6F
:1003500071EB0C01C1E70B46024641464846BDE839
:10036000F08B13B54FF000004FF00001AFF30080A9
:10037000BDE81C40704700000FB41CB5074B06AA2F
:100380007B4469460090059800F0A1FB0020694677
:1003900000F0B0FB1CBC5DF814FB0000710700000E
:1003A00070B5044685690068C10601D5302600E0B5
:1003B0002026C00707D070BDD4E901213046904700
:1003C000206A401C20626D1EF6D570BD70B50446D3
:1003D00085690078C00707D170BDD4E901212020CC
:1003E0009047206A401C20626D1EF6D570BD00004B
:1003F0002DE9F0410646002410687529314616A5FE
:1004000010D0AFF30080002802DA404213A507E0C5
:1004100031688A0701D512A502E0490704D511A564
:10042000012401E0AFF3008000210A2206F1240735
:1004300009E0B0FBF2FCB0FBF2F302FB1C00303031
:1004400078541846491C0028F3D123462A463046E2
:10045000BDE8F04100F0CEB8000000002D00000023
:100460002B000000200000002DE9F05F89460446C3
:100470004FF0000ADFF824B1FB44C0F820A020466A
:10048000E168884700287DD0252806D0D4E90121DD
:100490009047206A401C2062F1E700255F46204615
:1004A000E16888472028064607DB312E05D2B819B7
:1004B00010F8200C08B10543F1E7A80701D525F095
:1004C0000405C4F81CA00027C4F818A02A2E09D0DF
:1004D000304602F014FA38B304EB8708303EC8F80F
:1004E000186019E059F8041B204604EB870291615B
:1004F000E1688847012F064618D1E069002820DA14
:1005000025F020051DE0D8F8180000EB800006EB70
:1005100040003038C8F818002046E1688847064691
:1005200002F0EDF90028EED1012F0AD02E2E08D1CD
:100530002046E16888477F1C0646022F45F02005CB
:10054000C4DBA069002803DA404245F00105A06140
:10055000E80701D025F01005A6B1A6F14100192841
:1005600002D8203645F400654A46314620462560CB
:100570004D46FFF743FE60B1012807D0ED1D25F081
:10058000070000E007E000F1080978E705F1040939
:1005900075E730467AE7206ABDE8F09F88260000BC
:1005A0004FF0000200B5134694469646203922BF0C
:1005B000A0E80C50A0E80C50B1F12001BFF4F7AF57
:1005C000090728BFA0E80C5048BF0CC05DF804EB39
:1005D000890028BF40F8042B08BF704748BF20F8A7
:1005E000022B11F0804F18BF00F8012B70477047A5
:1005F000704770472DE9F0470D46994692460446EC
:1006000000F124080168880604D5E06921F0100192
:10061000216000E00120A84201DD471B00E0002727
:10062000A1697A1902EB0900081AA0612078C006B6
:1006300002D42046FFF7B4FE002608E0D4E90121E9
:100640001AF806009047206A401C761C20624E452E
:10065000F4DB2078C0060AD52046FFF7A1FE06E0AD
:10066000D4E9012130209047206A401C2062381EC6
:10067000A7F10107F4DC07E0D4E9012118F805002F
:100680009047206A401C2062281EA5F10105F3DC7A
:100690002046FFF79BFE2078000602D50220BDE829
:1006A000F0870120FBE770472DE9FF4F0C461E46FF
:1006B0004FF0FF378BB0D2E90001DDF860800A907F
:1006C0008A46C1F30A5505B93D46002108464FF058
:1006D0000000BAF1000F00F4400005DA00EB8000E2
:1006E0004FF4400101EA50004FEA9059B9F1010F6F
:1006F00000DDB9460A9850EA4A000ED044F6105080
:10070000A5F2FF3545432F14B8F1000F1ED07542F6
:10071000291E1EDDC9F100021CE0B8F1010F4FF0E7
:10072000000001D0302103E0F24305E02154401CD9
:10073000B042FBDB30460022002121540B99C1F866
:100740000880C1E900200FB0BDE8F08FBD1B6D1C13
:10075000DEE74A4600DA694206A800F05BFA06AB1B
:1007600093E8070003AB83E8070050460A9900F0BE
:100770003CFB8DE80700A0F500501F38009003985F
:10078000002D0ADD42F21F014A460844002303A956
:100790000390684600F0A5FD09E0A0F500504A4628
:1007A0001F38002303A90390684600F0AFFD8DE8D1
:1007B00007000004000C03D04FF0FF30410800E0B8
:1007C0001046B8F1000F03D00022009215461EE03B
:1007D000751E05D400F098F9303262556D1EF9D5BA
:1007E000B3460122084302D000227F1C04E0207897
:1007F000302801D100227F1E002A099784D01DE0F5
:10080000112D07DA00F080F9303262556D1C50EA84
:100810000102F5D1084302D00098C8B10EE00021D2
:10082000681E05E0235C625C63542254401E491C30
:100830008142F7DBAB46A81B401E0990002004F85C
:100840000B000B98099AC0F80880C0E9002B7AE7E2
:1008500011264FF0000857E72DE9F04F884604466F
:10086000D21D22F0070191B0D1E90001CDE90A01C2
:1008700002F01DF802460B98C00F01D02D2007E0B2
:100880002068810701D52B2002E0202101EAC00069
:10089000032A099001D0072A05DB0346414620467A
:1008A00000F078F90BE12078800601D5E06900E0DE
:1008B0000620B8F1650F814606D0B8F1660F18D052
:1008C000B8F1670F70D131E00020B9F1110F00903D
:1008D00001DB112301E009F101030AAA01A90CA817
:1008E000FFF7E2FEDDE90C70002609F10105834601
:1008F00047E001204B4600904FF000470AAA01A9AB
:100900000CA8FFF7D1FEDDE90DB00C995D4600267D
:1009100010B909F101000D18B9EB050003D4C0F1BD
:10092000FF3609F10105A5EB09002BE0B9F1010F34
:1009300001DA4FF001090020B9F1110F009048468B
:1009400001DD112300E003460AAA01A90CA8FFF764
:10095000ABFEDDE90C704D4600268346207800078B
:100960000AD4AB4500DA5D4601A8012D04DD41192A
:1009700011F8011C302907D04F4502DA17F1040F96
:1009800004DA012082460FE06D1EEEE7002F02DC44
:10099000ED1B3E4403E0781CA84200DD7D1CB81B23
:1009A00000F1010A4FF000472078000703D4AA4560
:1009B00001DB4FF0FF3A0021B7F1004F0DF1430882
:1009C0008DF8431024D002202B23002F01DA7F4220
:1009D0002D230A21021EA0F1010000DC5FB197FB6C
:1009E000F1FC97FBF1F201FB1C7C17460CF1300C7B
:1009F00008F801CDEEE7A8F1010003702188090590
:100A000001D5452100E06521A0F1010800F8011C95
:100A100009980FA9A1EB0807FF1D00B1012041199A
:100A200001EBEA70A1693844081A401EA0612078E1
:100A3000C00602D42046FFF7B3FC099828B1D4E9D8
:100A400001219047206A401C20622078C00622D5F0
:100A50002046FFF7A5FC1EE0002E04DBB34502DDB7
:100A600001A8805D00E03020D4E901219047206A90
:100A7000401C2062761CAAF101005FEA000A0AD13C
:100A800000F03EF8C0680168405CD4E9012190475D
:100A9000206A401C2062281EA5F10105DCDC07E06D
:100AA000D4E9012118F8010B9047206A401C20620C
:100AB000381EA7F10107F3DC2046FFF787FC03206F
:100AC00011B041E601694A1C02610878704700B51F
:100AD0008FB0CDE901310021059105497944CDE977
:100AE000031011466846FFF7BFFC0FB000BD0000C1
:100AF000E5FFFFFF0A6802F8010B0A60704700007B
:100B0000004870477C00002030B5B0F10A024FEA7F
:100B1000900E71F100034EEA817EB0EB0E0061EBA6
:100B200091014FEA101E4EEA017E10EB0E0041EBE0
:100B300011114FEA102E4EEA016E10EB0E0041EB40
:100B400011214FEA104E4EEA014E10EB0E0041EB20
:100B50001141401841F100014FEAD00040EA4170D4
:100B60004FEAD10110EB80054FEA810444EA90740A
:100B700044EB01046D1944EB0404521BA3414FF0F4
:100B8000000348BF0A3200D530BD401C41F10001CE
:100B900030BD00002DE9F0411F46044603260168E0
:100BA000072A01F4006004DB08B116A505E016A5CC
:100BB00003E008B115A500E015A521F010002060A4
:100BC000A069C01EA0610FB1401EA0612046FFF7C2
:100BD000E7FB4FB1D4E9012138469047206A401C19
:100BE0002062C01C206206E0206AFAE7D4E90121F5
:100BF00015F8010B9047761EF8D22046FFF7E6FB6A
:100C0000BDE8F0814E414E006E616E00494E4600D7
:100C1000696E66002DE9F047814616468AB0354870
:100C200078440DC88DE80D0032487844801C03AC30
:100C30000DC884E80D0041F69B300844372190FB35
:100C4000F1F290FBF1F5A5F1800501FB12041B3CCC
:100C500002D56442012000E00020DFF898A0804621
:100C60000027FA44AAF1BE0A0EE0E0070AD0324695
:100C7000684607EB470101230AEB810100F046FBC0
:100C80008DE8070064107F1C002CEED1194F7F44C3
:100C9000AE3F19E0E80715D007EB04100DF1180A74
:100CA00090E80E008AE80E00C068F04201D1981961
:100CB00008903246012306A903A800F027FB03ABE6
:100CC00083E807006D10641C002DE3D14FF0010391
:100CD00032466946B8F1000F03A802D000F001FBCC
:100CE00001E000F013FBC9E90001C9F808200AB0CF
:100CF000BDE8F087701F0000004870475C000020CE
:100D00007546FFF7F9FFAE4605006946534620F0E9
:100D10000700854618B020B5FFF7A4FABDE82040CB
:100D20004FF000064FF000074FF000084FF0000BA7
:100D300021F00701AC46ACE8C009ACE8C009ACE85A
:100D4000C009ACE8C0098D46704710B50446AFF342
:100D500000802046BDE81040FFF76FBA4FF0013C1D
:100D600050F8042B51F8043B9A4221D1A2EB0C031A
:100D7000934313EACC1317D150F8042B51F8043BDA
:100D80009A4215D1A2EB0C03934313EACC130BD177
:100D900050F8042B51F8043B9A4209D1A2EB0C0302
:100DA000934313EACC13DBD04FF00000704700BF31
:100DB000D01A01BAB1FA81F101F0180122FA01F05A
:100DC000CB40C1F12001DBB2C0B2C01A2CFA01F352
:100DD000D11A914311EAC311E6D170470149182095
:100DE000ABBEFEE72600020070475FEA400C08BF7A
:100DF00091F0000F4FEA8C234FEAC12243EA515190
:100E00004FEA1C5018BF00F5F0404FEA300018BF01
:100E100041F000415FEA6C5C00F02980BCF1FF3FCB
:100E200008BF40F080407047130C06BF12044FF01B
:100E3000100C4FF0000C130E04BF12020CF1080C42
:100E4000130F04BF12010CF1040C930F04BF9200A6
:100E50000CF1020CD30F04BF52000CF1010C11462F
:100E60004FF00002A0F11F00A0EB0C00704711F042
:100E7000004F08BF704731F000413FF4D5AF0B0C75
:100E800006BF09044FF0100C4FF0000C0B0E04BF0E
:100E900009020CF1080C0B0F04BF09010CF1040C42
:100EA0008B0F04BF89000CF1020CCB0F04BF49006B
:100EB0000CF1010CCCF12003A0EB0C0022FA03F39F
:100EC00002FA0CF241EA030100F10100704720F040
:100ED0007F4C80EA030023F07F47ACEB070303F568
:100EE0007C5300F0004003F1FF032DE980494FEAF5
:100EF000154B09B44FEA144325EA0B4E24EA034884
:100F00000FF2042606EB132749083E785FEA320207
:100F100003FB0667C7F5000707FB06F64FEA5437E1
:100F20004FEAD64606F1020607FB066CCCF1005CE0
:100F30004FEA1C472CEA074C07FB06F40CFB06F5AE
:100F400004EB15464FEA961634BF00204FF00040E0
:100F50004FEAD13706FB07FC4FEA1C4C0CFB0BF7A2
:100F6000D21B03FB0CF761EB07010CFB0EF7B0EB98
:100F7000074072EB17420CFB08F734BFA2EB0742A5
:100F8000B2EB074261EB17414FEA0C444FEA91077D
:100F900006FB07FC4FEA1C4C0CFB0BF7B0EBC74001
:100FA00072EB573203FB0CF734BFA2EBC742B2EB34
:100FB000C74261EB57310CFB0EF7B0EBC70072EB89
:100FC00057720CFB08F734BFA2EBC702B2EBC702A3
:100FD00061EB5771039F4FEA816141EA921104EB83
:100FE000CC044FEAD1374FEA826206FB07FC42EAA3
:100FF00090124FEA80604FEA1C4C0CFB0BF7D21B9F
:1010000003FB0CF761EB07010CFB0EF7B0EB07409D
:1010100072EB17420CFB08F734BFA2EB0742B2EBAE
:10102000074261EB17414FEA8C554FEA910704EBF9
:101030009C2406FB07FC4FEA1C4C0CFB0BF7B0EBA7
:10104000C74072EB573203FB0CF734BFA2EBC74229
:10105000B2EBC74261EB57310CFB0EF7B0EBC700A8
:1010600072EB57720CFB08F734BFA2EBC702B2EB6E
:10107000C70261EB577115EB4C254FEA816141EADC
:1010800092114FEA82624FEAD13742EA901206FB90
:1010900007FC44F100044FEA80604FEA1C4C0CFB53
:1010A0000BF7D21B03FB0CF761EB07010CFB0EF7F0
:1010B000B0EB074072EB17420CFB08F734BFA2EB12
:1010C0000742B2EB074261EB174115EB1C154FEAE3
:1010D000813141EA92414FEA823242EA90424FEA3C
:1010E00080304FEA0C7644F1000448EA03434EEAAC
:1010F0000B484FF0000EB2EB080C71EB030724BF56
:10110000624639464EEB0E0E4FF0000B001852416E
:1011100049414BEB0B0BB2EB080C71EB03077BF176
:10112000000B24BF624639464EEB0E0E4FF0000B0B
:101130000018524149414BEB0B0BB2EB080C71EB21
:1011400003077BF1000B24BF624639464EEB0E0EBF
:1011500051EA020718BF46F0010616EB0E7655F16C
:10116000000254F1000103D5BDE88901BDE8008803
:10117000BDE88901BDE80048B619524141EB0101C3
:10118000A3F10103704780807F7E7D7C7B7A797834
:10119000777676757473727171706F6E6E6D6C6C3C
:1011A0006B6A6A69686867666665646463636261DE
:1011B0006160605F5F5E5E5D5D5C5C5B5B5A5A595F
:1011C00059585857575656555555545453535252CB
:1011D0005251515050504F4F4F4E4E4D4D4D4C4C23
:1011E0004C4B4B4B4A4A4A4949494848484747476C
:1011F00047464646454545444444444343434342A9
:10120000424242414141002B9C4630D477002BD0D2
:101210001CB54FEA370703B44FF010004FF0100130
:10122000BAF1000F06D0BCF1000FDCBF40F008009F
:1012300040F008014FF000000FBCBDE810400BF17A
:10124000010BBBF1010F08BF5FEA170722BF12F1C4
:10125000010211F101014FF0004143F1000300F0E0
:10126000004043EA00007047F9D35708D0E746EA48
:10127000064613F1400F4FEA16461FDD13F1200F0B
:10128000DFBF16430A46002120335B42BED0C3F1C4
:10129000200746EA064602FA07F74FEA164646EAEC
:1012A0000706C3F1200722FA03F201FA07F721FA31
:1012B00003F14FF0000342EA0702A7E746EA0206FD
:1012C00046EA06464FEA164646EA0106BCBF46EA2B
:1012D0000646360C4FF000034FF000024FF00001BD
:1012E00094E72DE9804C9A46934670B491E8380013
:1012F00007C831EA400C48BF34EA430C03D5FFF776
:10130000E6FDFFF780FFF0BCBDE8008C2DE9804CC6
:101310009A46934670B491E8380007C810F0804FA1
:1013200008BF13F0804F03D100F005F8FFF76BFF03
:10133000F0BCBDE8008C20F07F4780EA030023F07A
:101340007F4C07EB0C03A3F57C5300F00040A3F1A6
:10135000FE0392F0000F00F0B38095F0000F00F054
:1013600077802DE901494FEA11404FEA144621EAFE
:10137000004800FB06FC24EA064708FB06F607FBCC
:1013800008F800FB07F718EB06484CEB164C4FEA41
:10139000124B18EB07484FEA15464CEB174022EA70
:1013A0000B4E0BFB06FC25EA06470EFB06F607FB79
:1013B0000EFE0BFB07F71EEB064E4CEB164C4FF0E8
:1013C00000061EEB074E4CEB174B18EB0B0840F1D9
:1013D000000018EB0E0B58EB000840F100008F1ACC
:1013E0004FF000013CBFC943661B14BFB5EB040CB2
:1013F00000213CBFC943F61B4FEA17444EEA8E0E4C
:1014000027EA04454FEA1C4704FB07622CEA074C15
:1014100005FB07F70CFB05F604FB0CFC16EB074677
:1014200042EB174216EB0C4642EB1C421BEB060646
:1014300058EB0202414146EA9E0601D5BDE801890A
:10144000B619524141EB0101A3F10103BDE8018945
:101450004FEA14454FEA114724EA054621EA074CB2
:1014600005FB07F406FB07F70CFB06F105FB0CFC7C
:1014700011EB074144EB17444FEA124711EB0C41C3
:1014800044EB1C4422EA074C05FB07F206FB07F776
:101490000CFB06F605FB0CFC16EB074642EB17426D
:1014A00016EB0C4642EB1C456A1854F1000148BF8C
:1014B0007047B619524141EB0101A3F10103704796
:1014C00095F0000F37D04FEA11424FEA144721EA56
:1014D000024624EA074C02FB07F106FB07F70CFB68
:1014E00006F402FB0CFC14EB074441EB17414FEAF6
:1014F000154714EB0C4441EB1C4125EA074C02FB59
:1015000007F506FB07F70CFB06F602FB0CFC16EBD7
:10151000074645EB174516EB0C4645EB1C421219E6
:1015200051F1000148BF7047B619524141EB01012A
:10153000A3F1010370474FEA14454FEA114724EA2B
:10154000054621EA074C05FB07F106FB07F70CFBF4
:1015500006F24FF0000605FB0CFC12EB074241EBD4
:10156000174112EB0C4251EB1C4148BF70479218D7
:1015700041EB0101A3F1010370470000014800F0B5
:1015800055B9000014000020464910B54A6822F4FD
:1015900040324A604A6843681A434A6001684A68B0
:1015A00022F480724A6001684A68036942EA0322B1
:1015B0004A6001684A6822F040724A6001684A68DD
:1015C00083681A434A6001688A6822F400628A606C
:1015D00001688A68C3681A438A60816A6FF0706222
:1015E000D14201688A6822F070628A6001688A6864
:1015F0000CD0836A1A438A6001688A6822F04052DC
:101600008A6001688A68C36A1A4301E022F0405286
:101610008A6001688A6822F002028A6001688A682A
:10162000037E42EA43028A6090F820100029016894
:101630004A680FD042F400624A6001684A6822F4A6
:1016400060424A6001684A68174C436A04EB4333BE
:101650001A4301E022F400624A600168CA6A22F477
:101660007002CA620168CA6A838B104C04EB035390
:101670001A43CA6201688A6822F400728A600168AB
:101680008A6890F8303042EA43228A6001688A68AA
:1016900022F480628A6001688A68406942EA802098
:1016A000886010BD0023014000E0FFFF0000F0FF54
:1016B000FEE7704772B6FEE77047000078B5002479
:1016C000009490F83C20012A19D0012280F83C2097
:1016D0000A6807230568092A13D9EE680A3A02EB5B
:1016E000420293409E43EE600B788A680A3B03EB0C
:1016F00043039A400368DD682A43DA6010E0022061
:1017000078BD2E6902EB420293409E432E610B7816
:101710008A6803EB43039A4003681D692A431A61F0
:101720004A681F23072A13D205686E6B521E02EB0C
:10173000820293409E436E630B790A885B1E92B2CD
:1017400003EB83039A4003685D6B2A435A6327E0E7
:1017500005680D2A12D22E6BD21F02EB8202934033
:101760009E432E630B790A88DB1F92B203EB83033F
:101770009A4003681D6B2A431A6311E0EE6A0D3A22
:1017800002EB820293409E43EE620B790A880D3B86
:1017900092B203EB83039A400368DD6A2A43DA625C
:1017A000164B0568144A9D4206D10D68122D03D1CF
:1017B000556845F48005556005689D4218D10B6851
:1017C000102B01D0112B13D1536843F40003536045
:1017D000096810290CD10A490A4A0968B1FBF2F1DB
:1017E00001EB8101490000E0491E00910029FBD175
:1017F00080F83C40002078BD0023014000200140DB
:101800001000002040420F0010B5044600F00BF815
:10181000034908802046BDE8104000F0D5B900001B
:101820000000002070470068C06C704770B5044627
:1018300000680668456816F0020F05F020012AD0FE
:1018400049B3216CC90603D4216C41F400712164B1
:10185000816811F0405F17D1217EA9B9C16A11F4E6
:10186000700F02D0816849050ED4416821F0200133
:101870004160206C20F480702064206CC00403D48C
:10188000206C40F0010020642046FFF7BDFF216876
:101890006FF01200086016F0040F05F0800132D0DE
:1018A00089B3206CC00603D4206C40F4005020643F
:1018B0002068816811F4401F1ED1816B11F4401F14
:1018C00002D08168490517D44168490514D481685C
:1018D00011F0405F10D1217E71B9416821F0800183
:1018E0004160206C20F480502064206CC00503D43B
:1018F000206C40F0010020642046FFF7DDFE2168E7
:101900006FF00C00086016F0010F05F040010FD0D9
:1019100071B120680068C0070AD0206C40F48030A4
:101920002064204600F043F821686FF00100086051
:1019300016F0200F05F080610ED000290CD0606CED
:1019400040F00200606420686FF0200505602046CA
:10195000FFF768FF2068056070BD70B504004FF0A8
:10196000000503D0206C002610B107E0012070BDF7
:10197000204600F01DF8666484F83C60206CC006C8
:1019800010D4206C20F4885040F0020020642046DF
:10199000FFF7FAFD6664206C20F0020040F00100C1
:1019A000206400E0012584F83C60284670BD704743
:1019B00010B586B0044614216846FEF7F1FD1549BE
:1019C0002068884224D114480021026842F48072C1
:1019D0000260006800F4807005900F4814380268B7
:1019E00042F001020260006800F001000590202032
:1019F00000900320CDE901016946084800F09AF9FA
:101A000000221146122000F001FB122000F0F0FA33
:101A100006B010BD002001404438024000000240E2
:101A20002DE9F041044600680D4681684FF000073B
:101A300049050BD58068C00508D5206C40F0200012
:101A4000206484F83C700120BDE8F08100F070FA59
:101A5000064613E0681C11D025B100F069FA801B1E
:101A6000A8420BD920680068800707D4206C40F09A
:101A70000400206484F83C700320E5E720680068D7
:101A80008007E7D521686FF012000860206C40F4F1
:101A9000007020642068816811F0405F13D1217EBE
:101AA00089B9C16A11F4700F02D0806840050AD468
:101AB000206C20F480702064206CC00403D4206C5F
:101AC00040F0010020640020BEE7000018B50021AE
:101AD000009190F83C20012A07D0012280F83C2098
:101AE00002689368DB0702D011E0022018BD9368FA
:101AF00043F0010393602E4A2E4B1268B2FBF3F2BF
:101B000002EB420200E0521E0092002AFBD1026862
:101B10009368DB0742D0036C40F20164A34343F4B3
:101B20008073036453685B0505D5036C23F400538D
:101B300043F480530364036CDB0404D5436C23F04B
:101B40000603436400E0416480F83C101A496FF0DA
:101B50002203136049680068CA06184906D0884203
:101B600024D1816811F0405F13D01FE08842F8D083
:101B7000134A904203D1D1F80423D206F1D0114A7E
:101B8000904213D1D1F8041301F01F011029E8D3BA
:101B90000CE0816841F08041816007E0016C41F018
:101BA00010010164416C41F001014164002018BD45
:101BB0001000002040420F0000230140002001409F
:101BC000002101400022014018B50021009190F849
:101BD0003C20012A07D0012280F83C20026893684B
:101BE000DB0702D011E0022018BD936843F0010327
:101BF0009360314A314B1268B2FBF3F202EB4202BE
:101C000000E0521E0092002AFBD102689368DB07B5
:101C100047D0036C40F20164A34343F48073036430
:101C200053685B0505D5036C23F4005343F48053DC
:101C30000364036CDB0404D5436C23F006034364A4
:101C400000E0416480F83C101D4B6FF022011160F0
:101C500001684A681B4C22434A6059680068CA06FA
:101C6000194906D0884224D1816811F0405F13D011
:101C70001FE08842F8D0154A904203D1D1F80423DE
:101C8000D206F1D0124A904213D1D1F8041301F0D8
:101C90001F011029E8D30CE0816841F08041816088
:101CA00007E0016C41F010010164416C41F0010159
:101CB0004164002018BD00001000002040420F00C9
:101CC00000230140200000040020014000210140C9
:101CD0000022014090F83C1001290CD0012180F82D
:101CE0003C1001688A6822F001028A6001688968F4
:101CF000C90702D007E002207047016C21F4885127
:101D000041F001010164002180F83C100846704751
:101D100070B5044600F00CF90546601C02D004487A
:101D20000078044400F004F9401BA042FAD370BDCF
:101D3000040000202DE9F84FDFF8BCA100220125A6
:101D400003264FF00F090AF1040BAAF1040E00BF9D
:101D50000B6805FA02F42340A34270D10F7907F013
:101D60000307012F01D0022F16D187684FEA4208DE
:101D700006FA08FC27EA0C07D1F80CC00CFA08FC9C
:101D80004CEA070CC0F808C04768A7430C79C4F3B5
:101D9000001494403C4344600C79E443A4070AD007
:101DA000C4684FEA420C06FA0CF7BC438F6807FA86
:101DB0000CF72743C7600C7904F00304022C12D1FE
:101DC000D40800EB840CDCF820405707FF0E09FA1A
:101DD00007F824EA0804D1F8108008FA07F848EA5E
:101DE0000408CCF8208004684FEA420C06FA0CF78D
:101DF000BC430F7907F0030707FA0CF72743076086
:101E00004C6814F4403F70D03C4C276847F480473E
:101E10002760246822F0030704F480440094384CBF
:101E200007EB040CDCF8084897074FEA177809FA23
:101E300008F7BC43334FB84202D1002724E054E0F6
:101E4000314FB84201D101271EE0304FB84201D1D5
:101E5000022719E02E4FB84201D1032714E02D4F7D
:101E6000B84201D104270FE02B4FB84201D105271A
:101E70000AE02A4FB84201D1062705E0284FB842B0
:101E800001D1072700E0082707FA08F72743CCF815
:101E90000878DAF800405746D1F804C09C435FEA5E
:101EA000CC2C00D51C433C60DBF800405F46D1F8E9
:101EB00004C09C435FEA8C2C00D51C433C60DEF8D8
:101EC00000407746D1F804C09C435FEA8C3C00D5C3
:101ED0001C433C60084F083F3C68D1F804C09C4359
:101EE0005FEACC3C00D51C433C60521C102AFFF436
:101EF0002FAFBDE8F88F0000083C01404438024095
:101F0000003001400000024000040240000802408E
:101F1000000C024000100240001402400018024071
:101F2000001C02400AB1816170470904FBE7000010
:101F30000148806870470000040000200248816862
:101F40000278114481607047040000200B4810B5EE
:101F5000016841F400710160016841F48061016031
:101F6000016841F480710160032000F06FF80F20D8
:101F700000F006F800F024F8002010BD003C0240FC
:101F800070B50D4D04464FF47A712878B1FBF0F02E
:101F90000A490968B1FBF0F000F0ECFA48B9102CDE
:101FA00007D200222146501E00F030F800206C605D
:101FB00070BD012070BD0000040000201000002052
:101FC0000A4808B5016841F480410160006800F4E6
:101FD000804000900548001F016841F08051016079
:101FE000006800F08050009008BD000044380240B6
:101FF000002809DB00F01F02012191404009800008
:1020000000F1E020C0F8001170470000F0B40E4B62
:102010001B680C46C3F30223C3F10705042D00D946
:102020000425191D072901D2002300E0DB1E01262B
:1020300006FA05F1491E214099409E40761E164041
:102040003143F0BC00F04BBC0CED00E0064900F061
:10205000070208684FF6FF03184040EA0220034ACF
:1020600010430860704700000CED00E00000FA0526
:102070002DE9F0470E46050065D0DFF81481D8F849
:102080000000F7B200F00700B04207D288F80070F5
:10209000D8F8000000F00700B04254D128683D4C49
:1020A000810712D5400703D5206840F4E050206036
:1020B0002878000703D5206840F46040206020683D
:1020C000A96820F0F000084320602878C0072DD0D0
:1020D000304968680839012812D0022813D0032833
:1020E00011D00968890700292DDA216821F0030140
:1020F00001432160FFF71CFF814641F2883A0EE060
:1021000009688903EFE709688901ECE7FFF710FF29
:10211000A0EB0901514502D90320BDE8F0872068F2
:10212000696800F00C00B0EB810FEFD1D8F8001017
:10213000404601F00701B14207D90770006800F07E
:102140000700B04201D00120E7E72878400705D515
:102150002068E96820F4E0500843206028780007F0
:1021600006D52068296920F4604040EAC10020605B
:1021700000F018F82168084AC1F30311515CC84007
:102180000649086006480068FFF7FAFE0020C4E729
:10219000003C024008380240F42A000810000020E9
:1021A00008000020154810B5006810F00C02144813
:1021B00013D01449042A0FD0082A0ED10F4C241F23
:1021C0002268236802F03F025B0207D52068C0F353
:1021D0008810A0FB010106E0084610BD2168C1F38C
:1021E0008811A1FB00010023FEF74EF82168C1F31E
:1021F0000141491C4900B0FBF1F010BD0838024014
:102200000024F40040787D012DE9F84F04006ED0E1
:102210002078DFF84C93C007A9F104054AD009F1F2
:1022200004000168C1F38101012908D00068C0F3EE
:10223000810002280AD1D9F80000400206D528689A
:10224000800337D560680028E1D033E06068B0F5DE
:10225000803F10D0B0F5A02F286810D020F4803037
:102260002860286820F4802028606068A8B1FFF703
:102270005FFE06460DE0286840F48030F4E740F445
:1022800080202860F7E700BFFFF752FE801B64281C
:1022900073D828688003F7D50CE0FFF749FE06469F
:1022A00005E000BFFFF744FE801B6428F0D82868D3
:1022B0008003F7D42078DFF8AC8280074FF0000A63
:1022C0003ED5A748001D016811F00C0F08D000682A
:1022D000C0F3810002280BD1D9F80000400207D4D6
:1022E0002868800716D5E068012800D112E033E1A4
:1022F000E068B8B10120C8F80000FFF719FE0646F3
:1023000005E000BFFFF714FE801B0228C0D8286834
:102310008007F7D52868216920F0F80040EAC1005D
:1023200028600DE0C8F800A0FFF702FE064604E0B2
:10233000FFF7FEFD801B02281FD828688007F7D40E
:102340002078000722D5864F87486169703771B1C0
:1023500001210160FFF7ECFD064604E0FFF7E8FD10
:10236000801B022809D838688007F7D50EE0C0F82E
:1023700000A0FFF7DDFD064605E082E0FFF7D8FD8F
:10238000801B02287DD838688007F7D42078400762
:1023900068D5DFF8CCB100270BF13C0BDBF800006F
:1023A000C0000BD4DBF8001041F08051CBF80010D6
:1023B000DBF80000012700F0805000906B4E306881
:1023C000C00510D4306840F480703060FFF7B0FD75
:1023D000009005E0FFF7ACFD0099401A022850D8A4
:1023E0003068C005F6D55E4EA0686C3601280FD067
:1023F0000528306810D020F001003060306820F0EF
:1024000004003060A068B8B1FFF792FD00900FE0C3
:10241000306840F00100F4E740F004003060F7E776
:10242000FFF786FD0099411A41F28830814266D853
:1024300030688007F4D50EE0FFF77AFD009007E0E2
:10244000FFF776FD0099411A41F28830814256D853
:1024500030688007F4D42FB1DBF8001021F08051F0
:10246000CBF80010A069C8B33D49091D0968C1F344
:10247000810102294AD00228504607D0C8F86000DE
:1024800000E03CE0FFF754FD04463BE04746C8F857
:102490006000FFF74DFD064605E000BFFFF748FD71
:1024A000801B02282BD828688001F7D4D4E90701C3
:1024B0000843A16A2E4A490802EB0141626A41EAD7
:1024C0008211084394F82C1040EA0161C9F8001009
:1024D00001203866FFF72CFD044606E03EE000BF11
:1024E000FFF726FD001B022809D828688001F7D5D0
:1024F00034E000BFFFF71CFD001B022802D90320B7
:10250000BDE8F88F28688001F4D427E00128F7D0CF
:10251000D9F80000E26900F4800191421CD1226ADE
:1025200000F03F01914217D147F6C071626A014045
:10253000B1EB821F10D1A26A4FF0FF3300F440319B
:1025400003EB5202B1EB024F06D194F82C1000F0CD
:102550007060B0EB016F01D00120D1E70020CFE720
:102560000438024000004742800E4742007000409D
:102570000000FFFF10B5401EB0F1807F01D30120A5
:1025800010BD4FF0E02460610F21601700F0A7F943
:102590000020A06107202061002010BDFEE70000A0
:1025A00070B5144D044600224FF480712846FFF7A1
:1025B000B9FC200900F076F801225602314628467F
:1025C000FFF7B0FC00F0A2F9002231462846FFF7E1
:1025D000A9FC204600F066F8012231462846FFF7A4
:1025E000A1FC00F093F931462846BDE87040002276
:1025F000FFF798BC0004024070B5144D0446012258
:1026000011022846FFF78EFC200900F04BF801224A
:10261000560231462846FFF785FC00F077F9002284
:1026200031462846FFF77EFC204600F03BF80122A9
:1026300031462846FFF776FC00F068F93146284617
:10264000BDE870400022FFF76DBC000000040240AE
:1026500010B581B1012911D0022911D0032911D15E
:102660005430C0B240F08000FFF79AFFBDE8104040
:102670000120FFF74DBB40F08000F5E74030F0E768
:102680001430EEE710BD70B50546002405E0FFF7F5
:10269000B3FF00F03BF9641CE4B2285D0028F6D1DA
:1026A00070BD000070B50446134D000701D501222E
:1026B00000E0002280212846FFF734FC600701D5A6
:1026C000012200E0002240212846FFF72BFCA00752
:1026D00001D5012200E0002220212846FFF722FC3C
:1026E000E00701D0012200E000222846BDE870404A
:1026F0001021FFF717BC0000000C02407FB500243A
:10270000144800940194029411490394C0E9001400
:1027100084600461047680F820400F49C0E90A14FF
:102720000125C561C46080F830404561FFF715F9A7
:1027300008B1FEF7BFFF0520CDE900056946029408
:102740000448FEF7BBFF002801D0FEF7B3FF7FBDB2
:1027500000200140140000200100000FF0B587B0F8
:1027600014216846FDF71CFF27480024016841F04A
:1027700001010160016801F001010591016841F06A
:1027800010010160016801F010010591016841F03C
:102790000801016000681D4F00F008004FF400754B
:1027A0000590002229463846FFF7BCFB184E002250
:1027B000F0213046FFF7B6FB681000904FF4881008
:1027C000CDE9010469463846FFF7B4FA00950125C2
:1027D000CDE90154694638460394FFF7ABFA280364
:1027E00002218DE813000391049169463046FFF7FA
:1027F000A1FAF0200090CDE90154694630460394D7
:10280000FFF798FA07B0F0BD3038024000100240E0
:10281000000C0240FEE7FEE770477047FFF78EBBF3
:1028200010B592B030216846FDF7BAFE14210CA80D
:10283000FDF7B6FE17480024016841F080510160A1
:10284000006800F0805011901348016841F4804105
:1028500001600068069400F480401190022000900E
:1028600001200390102004906846FFF7CDFC08B1CA
:1028700072B6FEE70F20CDE90C040E940F940021F0
:102880000CA81094FFF7F4FB002801D072B6FEE705
:1028900012B010BD4038024000700040024801688C
:1028A00041F470010160704788ED00E0FEE703B479
:1028B00001984100009850EAC12018BF04204A0D39
:1028C00018BF40F0010040F2FF72B2EB515F08BF49
:1028D00040F00200012808BF052002B07047090738
:1028E000090E002804DB00F1E02080F80014704796
:1028F00000F00F0000F1E02080F8141D7047303820
:102900000A2801D2012070470020704700204FF4B0
:102910007A71401C80B28842FBD370472DED048B46
:10292000FFF714FBFFF77CFFFFF718FFFFF7E6FE4A
:102930001CA41F48FFF748F99FED1E9A1E4DF0EEAC
:10294000088A1B48FFF7C2F864211948FFF768F8A6
:102950001748FEF768FF00EE100A1548B8EE400A67
:1029600020EE280A20EE098AFFF7B4F918EE100AC3
:1029700000F048F841EC100B10A153EC102B20464E
:10298000FDF7FAFC2A880FA12046FDF7F5FC03218C
:102990000020FFF75DFE2046FFF775FEC820FFF719
:1029A000B7F9CEE7476172436B72617300000000B4
:1029B000140000200000803900000020252E32661F
:1029C00076000000253034640000000010B50029B6
:1029D0000AD00878002807D005487844FEF7BEF9E9
:1029E000002801D0002010BD0248784410BD00002E
:1029F000F2010000EA0100000808A0F500114FEA0A
:102A00003101704743004FEAD30C4FEA3C0C43407E
:102A10001FBF40070CF1605113F0FE4F70471CF0D0
:102A2000006F03D100200CF0004170470CF0004310
:102A300043EA507010B540EACC0000F00EF800BF39
:102A4000000000924FEA0001FFF7D6BF4FF00041AF
:102A50004FF00000A1F5002170470EF1020E2EF09C
:102A6000030E5EF8044B244204D44FEA4102B2F153
:102A70007F4F11D84FEA4003B3F17F4F0CD80ED1EE
:102A80004FEAD07CB2F17F4F0CEB4C0C0CF1020CF6
:102A900008BF4CEBD17C04E04FF0080C01E04FEA9A
:102AA000D17C0CEB4C0324FA03F404F00704B4F1DA
:102AB000040C06D20EEB840CBDE810404CF0010C67
:102AC0006047DFE80CF0070802024FF00040A0F575
:102AD000800010BD0846420018BFD2F1807288BF46
:102AE00000F0004010BD4FF04070E1EE100A70475A
:102AF000FDF7B2BE00000000000000000102030468
:102B00000607080904000008000000000000000299
:102B1000000100001000000002400000000000A0C2
:102B20000000000005400000000000C80000000098
:102B30000C4000000000409C000000001940000014
:102B40000020BCBE0000000034400000BFC91B8E46
:102B500000000004B5400000504BCFD06607E2CF24
:102B6000010000006C4100003E8251AADFEEA73454
:102B700001000000D9420000DCB5A0E23A301F9706
:102B8000FFFFFFFFB4450000FD25A0C8E9A3C14F2A
:102B9000FFFFFFFFFF3F000000000080000000007B
:102BA000FF3F00000000008000000000E82B00084C
:102BB0000000002014000000C4010008FC2B0008E5
:102BC00014000020AC060000E00100081C0000001A
:102BD00043000000F8FFFFFF0C0000000E000000A3
:102BE0000F0000002E0000000000000001000000A7
:0C2BF00010000000000000000024F400B1
:040000050800018965
:00000001FF
